:10000000BDEF05F00000000000EF00F00000000070
:0A0010000000000000000000F3D71C
:06001C00000000001200CC
:100022000F0E0C6E470E0D6E0D2EFED70C2EFCD74A
:06003200000000001200B6
:0A003800210E0D6E0D2EFED71200F2
:100042000B840BAE2CEF00F0010E036E026A016A04
:0A005200006A0A360232FF0E1200A7
:08005C000AAE029E000E120024
:0E006400026A016A006A086A036A000E12004E
:10007200000166BF02D0819601D0818666BD02D0A2
:10008200819401D0818466BB02D0819201D08182A9
:1000920066B902D0819001D081804FB002D0818AAE
:1000A20001D0819A8188B9DF819866B702D08196A2
:1000B20001D0818666B502D0819401D0818466B375
:1000C20002D0819201D0818266B102D0819001D0AA
:1000D20081804FB002D0818A01D0819A81889DDFD0
:0E00E20081984FA002D09CDF01D0A5DF120054
:1000F0000B820BAE82EF00F00368026801680068B3
:080100000A360232FF0E120064
:10010800086A096A000E0762036409EF01F00250E9
:1001180006180A6E075003267E0ED8A09AEF00F044
:10012800035ED8B00DEF01F09EEF00F0035ED8A09B
:1001380011EF01F0028E068E02C00EF001C00BF026
:1001480000C00DF000500402F4CF0CF0015005027D
:10015800F4CF00F0F3CF08F00402F3500C26F4506B
:100168000822000E00220D500502F3500C26F45010
:100178000822000E002202500402F3500826F45010
:10018800002202500502016A000E0122F3500026E7
:10019800F45001220D500602F3500826F4500022B4
:1001A800026A000E012202220B500602F3500026BA
:1001B800F4500122000E02220E500602F3500126CE
:1001C800F450022202BEF1EF00F008360036013684
:1001D80002360306D8B411EF01F004EF01F0D8801D
:1001E800800E08640030000E002201220222D8A0EE
:1001F80004EF01F0023201320032034A0DEF01F040
:100208000AAE029E000E13EF01F0010E27DF13EF76
:1002180001F0020E69DF13EF01F0040E0EDF120089
:0C0228000E0E0D6E0D2EFED70000120011
:080234000B6A0B86FF0E12009D
:10023C00086A080E0C6E003408360450085ED8B0FC
:0E024C0002D00826D89000360C2EF5D71200EE
:10025A0062C004F063C005F004C002F005C003F0F8
:10026A00044A052A64C000F065C001F00001644B2D
:10027A00652B00C0E9FF01C0EAFF02C0E1FF03C02D
:10028A00E2FFEECFE6FF02C0E9FF03C0EAFFEE524B
:0E029A0001E0E2D762C000F063C001F0120084
:1002A8000C6A0E6A0250D8A46DEF01F001C002F08A
:1002B80000C001F0006A0E860250D8A46DEF01F06C
:1002C80001C002F0016A0E960E880250D8B47FEF82
:1002D80001F00E50035ED8A4D8A084EF01F0D890A6
:1002E80002BE89EF01F0003601360236032E74EFA4
:1002F80001F084EF01F0010E0C6EB0DE8CEF01F01E
:10030800020E0C6E9ADE8CEF01F0040E0C6EA2DE6B
:020318001200D1
:10031A000A6A0350D8A40A800750D8A40A820A504D
:10032A00D8B4F0EF01F0030AD8B4A9EF01F00AB08B
:10033A00A4EF01F006AEEEEF01F0ECEF01F002AE31
:10034A00ECEF01F0EEEF01F00250800B0A6E029E14
:10035A000650800B069E0A18D8B4BAEF01F00A506C
:10036A00D8B4ECEF01F0EEEF01F00750035CD8B41B
:10037A00C4EF01F0D8A0E0EF01F0E6EF01F006507B
:10038A00025CD8B4CEEF01F0D8A0E0EF01F0E6EFBE
:10039A0001F00550015CD8B4D8EF01F0D8A0E0EF25
:1003AA0001F0E6EF01F00450005CD8B4F0EF01F080
:1003BA00D8B0E6EF01F00A52D8B4EEEF01F0ECEF54
:1003CA0001F00A52D8B4ECEF01F0EEEF01F0D88058
:0E03DA001200D8901200D880D88412001200B1
:0C03E8004F9062C066F041DE4F801200B2
:1003F4000FD0800E546E19D0C00E546E16D0940EC9
:10040400546E13D0D40E546E10D0800E546E0DD092
:100414005450010AEEE05450020AEEE05450030A2C
:10042400EEE05450040AEEE0F0D75504006E545048
:10043400002600C054F000C066F019DE4F90586AE0
:1004440058505624E96E000E5720EA6EEE520BE027
:1004540058505624E96E000E5720EA6EEECF62F033
:0A046400C1DF582AEDD74F801200C7
:10046E009398939A93909392939493968198819A5A
:10047E008196819481928190CDDDCCDDCBDD818220
:10048E0081808188C4DD8198C5DD8188C0DD819839
:10049E00C1DD8188BCDD8198BDDD81908188B7DDAD
:1004AE008198B8DD8188B3DD8198819281868188BB
:1004BE00AEDD8198AFDD819681808188A8DD81983F
:1004CE0081908188A4DD8198A5DD8188A0DD819849
:1004DE00818081889CDD81989DDD8190818897DD6A
:1004EE0081988186818481828180818890DD819846
:0604FE0091DD4F801200A9
:100504000900F5CFE6FF0006FBE10106F9E1120060
:10051400FF0E506EFF0E516EFF0E526EFF0E536EA5
:0C052400C26A070EC012C08EC280120016
:100530000450000A12E10550000A0FE10650000ABB
:100540000CE10750000A09E1FF0E006EFF0E016E7C
:100550007F0E026EFF0E036EA4D0086A096A075070
:10056000D8B443EF03F00350D8B447EF03F0025080
:1005700006180A6E028E068E0E6A02C008F001C0CE
:100580000CF000C00DF004500D5E0550D8A0053CE5
:100590000C5E0650D8A0063C085E086A0C6A0D6A1C
:1005A000D8A0DAEF02F0D8900232013200320832DD
:1005B000010E0E6E0750035ED8A0E7EF02F07E0E2C
:1005C0000E240326D8B04BEF03F0EDEF02F07E0EC1
:1005D0000E240326D8A04FEF03F0180E0B6E0D3635
:1005E0000C3608360036013602360E360450005EF0
:1005F0000550D8A0053C015E0650D8A0063C025E1E
:1006000006340E120EA008EF03F00D8013EF03F076
:10061000045000260550D8B0053C01260650D8B03D
:10062000062802260D900B2EEFEF02F039EF03F0B3
:10063000D8900036013602360E360450005E055062
:10064000D8A0053C015E0650D8A0063C025E0634E8
:100650000E10010B0D26D8B00C2AD8B4082AD8A445
:1006600039EF03F008320C320D32032AD8B44BEFC5
:1006700003F00AAE089E0850026E0C50016E0D5039
:10068000006E51EF03F0010ED5DD51EF03F0020EC5
:10069000E9DC51EF03F0040E2BDD51EF03F0080EFF
:0406A000D0DC120098
:1006A4000001606B616B54C05CF055C05DF056C0D6
:1006B4005EF057C05FF05F50FF0A08E15E50FF0A2A
:1006C40005E15D50FF0A02E15C50FF0A0CE158C0ED
:1006D40062F059C063F0380E646F000E656FBBDDC5
:1006E400030E006EE7D1010E5A6E5EAE0ED0800E80
:1006F4005E18006E00C05EF05A2A58C0E1FF59C06F
:10070400E2FF2D0EE66E584A592A000E006E5F185D
:1007140008E100505E1805E100505D1802E15C50EC
:10072400000A0BE158C062F059C063F0360E646FE2
:10073400000E656F90DD006ABDD15F50FF0A08E1CD
:100744005E50000A05E15D50000A02E15C50000AB7
:100754000CE158C062F059C063F0320E646F000EB1
:10076400656F79DD5AC000F0A5D1000E046E000E4D
:10077400056E000E066E7F0E076E5CC000F05DC055
:1007840001F05EC002F05FC003F0C5DD010ED8B019
:10079400000E006E00521BE05CC000F05DC001F072
:1007A4005EC002F05FC003F0000E046E000E056E22
:1007B400200E066E820E076EA5DC00C05CF001C040
:1007C4005DF002C05EF003C05FF06107CED7000E9B
:1007D400046E000E056E200E066E820E076E5CC05F
:1007E40000F05DC001F05EC002F05FC003F093DD75
:1007F400000ED8B0010E006E00521BE05CC000F089
:100804005DC001F05EC002F05FC003F0CD0E046E67
:10081400CC0E056E4C0E066E7B0E076E73DC00C0AC
:100824005CF001C05DF002C05EF003C05FF0612BBC
:10083400CED7FF0E5C14086EFF0E5D14096E7F0E9A
:100844005E140A6E000E5F140B6E08C004F009C03B
:1008540005F00AC006F00BC007F004360490053614
:1008640006360736000E5C14006E000E5D14016E31
:10087400000E5E14026EFF0E5F14036E00C05CF087
:1008840001C05DF002C05EF003C05FF004505C1074
:10089400006E05505D10016E06505E10026E07502A
:1008A4005F10036E00C05CF001C05DF002C05EF03A
:1008B40003C05FF07F0E5F5C006E00C05BF0010E52
:1008C4005F6E00C004F05CC000F05DC001F05EC06B
:1008D40002F05FC003F0045007E0003600900136D8
:1008E40002360336FF0FF8D700C05CF001C05DF09C
:1008F40002C05EF003C05FF058C0E1FF59C0E2FFE0
:100904005F50300FE66E584A592A800E6119006E06
:10091400800E010A005C08E3800E060A006E800E59
:100924006119005C01E30AD058C0E1FF59C0E2FF3D
:100934002E0EE66E584A592A010E606F060E5B6E43
:100944005B50000A54E05F6A5CC000F05DC001F0D7
:100954005EC002F05FC003F000360090013602363C
:100964000336003600900136023603365C5000260A
:100974005D5001225E5002225F50032200C05CF0F1
:1009840001C05DF002C05EF003C05FF05CC000F027
:100994005DC001F05EC002F05FC003F0003600905D
:1009A40001360236033600C05CF001C05DF002C0BF
:1009B4005EF003C05FF058C0E1FF59C0E2FF5F5032
:1009C400300FE66E584A592A6051000A0EE1610759
:1009D4006151000A0AE158C0E1FF59C0E2FF2E0E3E
:1009E400E66E584A592A010E606F5B06A9D7FF0EBE
:1009F4005824E96EFF0E5920EA6EEE50300A05E1E4
:100A0400010E585E000E595AF2D7FF0E5824E96EB3
:100A1400FF0E5920EA6EEE502E0A04E1010E585ED4
:100A2400000E595A6151000A3FE058C0E1FF59C015
:100A3400E2FF650EE66E584A592A800E6119006E6F
:100A4400800E000A005C0BE258C0E1FF59C0E2FFCF
:100A54002D0EE66E584A592A61510008616F61C033
:100A64005BF0615109080FE20A0E046E5BC000F0EE
:100A74001EEC01F058C0E1FF59C0E2FF0050300FF6
:100A8400E66E584A592A0A0E046E5BC000F01EEC4A
:100A940001F008C000F058C0E1FF59C0E2FF005067
:100AA400300FE66E584A592A58C0E1FF59C0E2FF98
:060AB400E66A006A120070
:100ABA000FD0800E546E19D0C00E546E16D0940EFC
:100ACA00546E13D0D40E546E10D0800E546E0DD0C6
:100ADA005450010AEEE05450020AEEE05450030A60
:100AEA00EEE05450040AEEE0F0D75504006E54507C
:100AFA00002600C054F04F8000C066F039EC00F0C8
:0E0B0A004F9056C066F039EC00F04F8012009C
:100B18000050086E0150006E016A026A036A0B6A8F
:100B28000C6A960E036E0A6A00C001F008C000F055
:0A0B3800086A026A54EC01F0120092
:100B4200C26A070EC012C08E54C000F00036009078
:100B5200003600900050C212C28014EC01F0C28232
:100B6200C2A201D0FDD7C4CF01F0006AC350001267
:080B7200000E0112C2901200F6
:100B7A0070EC06F00E0EC16E9280760ED36EC5DC56
:100B8A0071DC010E0001666F39EC00F00C0E666F25
:100B9A0039EC00F0010E546E010E556E170E566EAA
:100BAA00000E576E22DC0B0E0B6E260E0C6E5D0EBF
:100BBA000D6E0D2EFED70C2EFCD70B2EFAD7000089
:100BCA000000010E666F39EC00F0010E546E010E42
:100BDA00556E250E566E000E576E07DC020E546EC9
:100BEA00080E556EDF0E566E63DF020E546E090E46
:100BFA00556E430E566E5CDF546A9EDF00C015F0D8
:100C0A0001C016F084DF000E046E400E056E1C0E45
:100C1A00066E8B0E076E84EC00F0000E046E000E5A
:100C2A00056E000E066E890E076E7DDC00C03CF074
:100C3A0001C03DF002C03EF003C03FF0000E046E5A
:100C4A00000E056E200E066E820E076E6CDC00C06A
:100C5A003CF001C03DF002C03EF003C03FF000C0CE
:100C6A0054F001C055F002C056F003C057F0400ED0
:100C7A00586E000E596E11DD446A020E546E030E50
:100C8A00556E400E566E000E576EFAEC01F0040EC9
:100C9A000B6E0C0E0C6E330E0D6E0D2EFED70C2E37
:0E0CAA00FCD70B2EFAD700000000A6D7FFD70C
:100CE00010EE15F0270E006E010E016EB80EF66EB6
:0E0CF0000C0EF76E000EF86E82EC02F0120091
:020CB80000003A
:0E0CBA0050697469617320544845524D4F00D3
:0D0CC80054454D50455241545552453A0097
:040CD500494E46003E
:020CD9003000E9
:040CDB004E614E0018
:020000040030CA
:0D00010008191EFF0081FF0FC00FE00F4027
:00000001FF
